:100000000AC01AC018C017C023C015C014C013C03E
:1000100012C011C010C011271FBFCFE5D0E0DEBF56
:10002000CDBF20E0A0E4B0E001C01D93A234B20730
:10003000E1F730D04BC0E4CF1F930F930FB70F936E
:1000400010E011A910A90F910FBF0F911F911895E2
:100050001F930F930FB70F9310E04F935F936F931E
:1000600040A151A14F5F5F4F51A940A9483562E0BF
:10007000560711F4089A06C04935524010F011A9EC
:1000800010A908986F915F914F910F910FBF0F9139
:100090001F91189542E043B9089848ED4CBF61E0C4
:1000A00067BF4CBF16BF4CBF4EE041BF65BB63BBD3
:1000B00043E04EBD49E14DBD6BBD4FEF51E357BD30
:1000C00046BD6ABF7894A8958895FDCFF894FFCF78
:00000001FF
